:100000000C94E4010C940C020C940C020C94C107A7
:100010000C94C1070C94C1070C940C020C940C02B4
:100020000C940C020C940C020C940C020C940C0218
:100030000C940C020C940C020C940C020C940C0208
:100040000C9427150C940C020C943D070C94170784
:100050000C940C020C940C020C940C020C940C02E8
:100060000C942D0E0C940C02207F00000000000068
:1000700000000000005E0000000000000600000616
:10008000000000247E24247E240000246B2A2A6B96
:100090001200004626100864620000344A4A5420C8
:1000A000500000000000060000000000003C42007C
:1000B0000000000000423C000000002A1C3E1C2AF8
:1000C00000000008083E0808000000004030000062
:1000D00000000008080808080800000000400000B0
:1000E00000000040201008040200003C62524A4612
:1000F0003C000040447E4040000000645252525296
:100100004C000024424A4A4A340000382422227E0D
:100110002000002E4A4A4A4A3200003C4A4A4A4AD3
:10012000300000020262120A060000344A4A4A4ABB
:100130003400000C525252523C00000000240000D7
:10014000000000004024000000000000081422000D
:1001500000000014141414141400000000221408E9
:100160000000000402520A0400000018245A5A2415
:100170001800007C121212127C00007E4A4A4A4A81
:100180003400003C424242422400007E424242424D
:100190003C00007E4A4A4A424200007E0A0A0A02A5
:1001A0000200003C424252523400007E0808080817
:1001B0007E000000427E420000000020404040409F
:1001C0003E00007E080808146200007E4040404067
:1001D0004000007E040808047E00007E0408102011
:1001E0007E00003C424242423C00007E121212124B
:1001F0000C00003C425262423C00007E121212325D
:100200004C0000244A4A4A4A30000002027E0202A0
:100210000000003E404040403E00001E2040402084
:100220001E00007E201010207E000042241818249A
:1002300042000002047804020000004262524A4672
:10024000420000007E42420000000002040810202C
:10025000400000000042427E000000000004020452
:100260000000808080808080808000000002040088
:1002700000000020545454780000007E4848483064
:100280000000003844444428000000304848487EBC
:10029000000000385454544800000000087C0A0252
:1002A00000000018A4A4A47C0000007E08080870C8
:1002B00000000000487A4000000000408080887AFA
:1002C0000000007E1010284400000000427E400024
:1002D0000000007C047804780000007C04040478AA
:1002E0000000003844444438000000FC44444438D2
:1002F00000000038444444FC0000007C080404046E
:10030000000000485454542400000000043E4400FF
:100310000000003C4040207C0000001C2040201CCD
:100320000000001C601C601C0000004428102844D1
:100330000000001CA0A0A07C0000004464544C44B9
:1003400000000000083641000000000000FF00002F
:1003500000000000413608000000080404081010E6
:100360000800000000000000000000000000240061
:1003700027002A0000000000250028002B000000B4
:1003800000002300260029000404040404040404DB
:100390000202020202020303030303030102040830
:1003A00010204080010204081020010204081020DF
:1003B0000000000800020100000304070000000024
:1003C000000000002E1A4C1D11241FBECFEFD8E0F4
:1003D000DEBFCDBF12E0A0E0B1E0EAE6F3E402C088
:1003E00005900D92A634B107D9F725E0A6E4B2E056
:1003F00001C01D92A13DB207E1F711E0C3EED1E0CB
:1004000004C02197FE010E948D1FC23ED107C9F78B
:100410000E9471150C94A8210C9400000E948A215E
:10042000FC0124813581232B31F421E06115710514
:10043000A1F0FB0108C0FC0180819181611571056B
:1004400031F421E0FC018081882339F005C00E944D
:10045000982121E0892B09F020E0822F0895CF9385
:10046000DF93EC0188819981009711F00E94282088
:10047000198218821D821C821B821A82DF91CF9101
:1004800008950F931F93CF93DF93EC018881998197
:10049000009729F02A813B812617370788F48B01C2
:1004A0006F5F7F4F0E94C020009761F0998388831F
:1004B0001B830A832C813D81232B11F4FC011082C4
:1004C00081E001C080E0DF91CF911F910F910895ED
:1004D000EF92FF920F931F93CF93DF93FC01248140
:1004E00035816115710511F480E019C04115510580
:1004F000A9F07B01EC018A01020F131FB8010E94D1
:100500004102882389F3288139818C819D81B7013B
:10051000820F931F0E94A1211D830C8381E0DF9134
:10052000CF911F910F91FF90EF900895CF93DF939C
:10053000EC016115710561F0FB0101900020E9F704
:100540003197AF01461B570B0E946802811103C00F
:10055000CE010E942F02CE01DF91CF910895CF935B
:10056000DF93EC01FB0144815581608171810E9420
:100570006802811103C0CE010E942F02CE01DF91DB
:10058000CF9108950F931F93CF93DF938C01EB01CD
:10059000FC01808191810097B1F0688179816115BA
:1005A000710579F0428153812C813D8142175307B7
:1005B00040F00E94A1218C819D81F8019583848364
:1005C00013C00E94282088819981F801918380833B
:1005D0008A819B81938382838C819D81958384838F
:1005E000198218821B821A821D821C82DF91CF9190
:1005F0001F910F910895EF92FF920F931F93CF9346
:10060000DF93EC017B018A01BA010E944102811152
:1006100004C0CE010E942F0207C01D830C83B701C6
:10062000888199810E94A121CE01DF91CF911F91F4
:100630000F91FF90EF900895CF93DF93EC01611538
:10064000710559F0FB0101900020E9F73197AF01E6
:10065000461B570B0E94FB0202C00E942F02CE01D4
:10066000DF91CF910895CF93DF93EC01FB018617C3
:10067000970761F0608171816115710529F04481EE
:1006800055810E94FB0202C00E942F02CE01DF9121
:10069000CF910895FC01808191810C9428200F93C3
:1006A0001F93CF93DF93CDB7DEB762970FB6F89461
:1006B000DEBF0FBECDBF8C01CB01F80111821082CD
:1006C000138212821582148250E0BE016F5F7F4F49
:1006D0000E94811DBE016F5F7F4FC8010E941C03F5
:1006E00062960FB6F894DEBF0FBECDBFDF91CF91FB
:1006F0001F910F910895FC011182108213821282C2
:10070000158214820C9433030895CF92DF92EF92F6
:10071000FF920F931F93CF93DF936C017A018B01AC
:10072000C0E0D0E0CE15DF0589F0D8016D918D01D4
:10073000D601ED91FC910190F081E02DC601099563
:10074000892B11F47E0102C02196ECCFC701DF9105
:10075000CF911F910F91FF90EF90DF90CF90089570
:10076000FC01538D448D252F30E0842F90E0821BB7
:10077000930B541710F0CF96089501970895FC013C
:10078000918D828D981761F0828DDF01A80FB11DC8
:100790005D968C91928D9F5F9F73928F90E00895EC
:1007A0008FEF9FEF0895FC01918D828D981731F0A6
:1007B000828DE80FF11D858D90E008958FEF9FEFFA
:1007C0000895FC01918D228D892F90E0805C9F4FD0
:1007D000821B91098F739927089588E593E00E9401
:1007E000E10321E0892B09F420E0822F0895FC0128
:1007F000848DDF01A80FB11DA35ABF4F2C91848DAA
:1008000090E001968F739927848FA689B7892C93DE
:10081000A089B1898C9180648C93938D848D981379
:1008200006C00288F389E02D80818F7D8083089542
:10083000EF92FF920F931F93CF93DF93EC0181E030
:10084000888F9B8D8C8D981305C0E889F9898081EC
:1008500085FD24C0F62E0B8D10E00F5F1F4F0F7328
:100860001127E02E8C8DE8120CC00FB607FCFACFD2
:10087000E889F989808185FFF5CFCE010E94F703D1
:10088000F1CF8B8DFE01E80FF11DE35AFF4FF0828F
:100890000B8FEA89FB898081806207C0EE89FF891E
:1008A0006083E889F98980818064808381E090E0B9
:1008B000DF91CF911F910F91FF90EF900895CF930B
:1008C000DF93EC01888D8823C9F0EA89FB89808158
:1008D00085FD05C0A889B9898C9186FD0FC00FB62A
:1008E00007FCF5CF808185FFF2CFA889B9898C916B
:1008F00085FFEDCFCE010E94F703E7CFDF91CF91C7
:10090000089580E090E0892B29F00E94ED03811189
:100910000C94000008952091480230914902281754
:10092000390771F49091460280914702981741F07F
:10093000E0914602F0E0E355FD4F808190E008959C
:100940008FEF9FEF089508951F93CF93DF93DC01FE
:100950005C962D913C915D972115310539F481E02C
:1009600090E013969C938E9312973DC05196ED9113
:10097000FC91529750969C915097892F80951FB764
:100980005E964C915E9741FB772770F941FD60952B
:10099000F8944081772311F0492B01C0482340830C
:1009A000E9012197F1F748E0508160FF02C0592B1F
:1009B00001C058235083E9012197F1F76695415012
:1009C00099F7772321F090818923808303C0808168
:1009D000982B90831FBF5C968D919C915D9701979A
:1009E000F1F721E030E0C901DF91CF911F91089527
:1009F00020914802309149022817390771F48091FB
:100A000047022091460290E0805C9F4F821B910933
:100A100060E470E00E94651F089580E090E0089512
:100A2000209148023091490228173907B9F4909172
:100A3000460280914702981789F0E0914602F0E063
:100A4000E355FD4F80812091460230E02F5F3F4FFC
:100A50002F7333272093460290E008958FEF9FEF86
:100A60000895FC01962F6831F1F060F4B9019431DA
:100A700071F0973109F082C050E089EF93E00E9455
:100A8000D50B0FC0693131F1603259F077C0109247
:100A9000F8031092F7031092F6031092F5030E94E8
:100AA0005B0F81E00895A081B1811D968C91843007
:100AB00018F082E08093B800828990E09595879540
:100AC00091E090937702809398021092F60310922F
:100AD000F503E7CF9091F50380919802913208F0E9
:100AE00046C0209176022111FCCF22E020937602AD
:100AF00021E0209375022FEF20937402109273026D
:100B000090937202A8E7B2E042E552E0FA012E2F7C
:100B1000241B291718F42D912193F9CF109251021B
:100B200090915102880F892B80935102809150023D
:100B3000813061F410925002809151028093BB0089
:100B40008091BC0083FDF8CF85EC01C085EE8093D9
:100B5000BC00809176028230E1F3809174028F3F75
:100B600031F080917402803211F080917402109201
:100B7000F6031092F5031092770293CF80E0089568
:100B80008F929F92AF92BF92CF92DF92EF92FF929D
:100B90001F93CF93DF93EC016C3288F46A3208F034
:100BA0007DC06832A9F0693209F05EC0C42ED12C34
:100BB000E12CF12C0E949F144B015C0136C06D3278
:100BC000D1F108F451C084EB860F8230D8F14CC0CB
:100BD0006B9610E089918F3F39F0103110F461E08D
:100BE00001C062E00E944C141F5F163199F756C095
:100BF0000E949F14DC01CB0188199909AA09BB093D
:100C0000883E9340A105B10580F021E0C21AD108C9
:100C1000E108F10888EE880E83E0981EA11CB11C43
:100C2000C114D104E104F10419F7C114D104E104A1
:100C3000F104F1F633C0433088F586E090E0019787
:100C4000F1F72CC0962F9F73C90FD11D411107C01A
:100C500061E08B8D0E944C1460E08B8D12C062E0CD
:100C60008B8D0E944C141AC06034B0F0962F9F7385
:100C7000FE01E90FF11D838D8F3F81F0903120F44B
:100C8000642F0E941C140AC00E94F31321E0892BD8
:100C900009F420E02E8B02C080E001C081E0DF91EA
:100CA000CF911F91FF90EF90DF90CF90BF90AF90CA
:100CB0009F908F900895FC011182108213821282FE
:100CC000158214826115710551F0FB01019000201D
:100CD000E9F73197AF01461B570B0C94FB020895BF
:100CE0004F925F926F927F92EF92FF920F931F93BA
:100CF000CF93DF93CDB7DEB7A1970FB6F894DEBFE1
:100D00000FBECDBF7C01FA01CB0119A2223008F43D
:100D10002AE08E010F5D1F4F422E512C612C712C49
:100D2000BF01A30192010E949B1EF901CA0101505B
:100D300011096A3014F4605D01C0695CD8016C93DC
:100D4000232B242B252B61F7B801C7010E94790FB3
:100D5000A1960FB6F894DEBF0FBECDBFDF91CF9145
:100D60001F910F91FF90EF907F906F905F904F9049
:100D700008958F929F92AF92BF92CF92DF92EF929F
:100D8000FF920F931F93CF93DF937C01EB016C01D4
:100D900082E0C80ED11C4701E5E08E0E911C00E0F8
:100DA00010E0F60141916F0150E060E070E02AE050
:100DB000CE010E9470065C01E881F9810190F0810A
:100DC000E02D6EE2CE0109958A0D9B1D080F191FBB
:100DD000C814D90431F7F701458150E060E070E0B4
:100DE0002AE0CE010E947006800F911FDF91CF9103
:100DF0001F910F91FF90EF90DF90CF90BF90AF9039
:100E00009F908F9008950F931F93CF93DF93EC01E2
:100E10000E94790F8C0160E072E0CE010E94790F90
:100E2000800F911FDF91CF911F910F9108951F9215
:100E30000F920FB60F9211242F933F934F935F930E
:100E40006F937F938F939F93AF93BF93EF93FF9392
:100E500088E593E00E94F703FF91EF91BF91AF9176
:100E60009F918F917F916F915F914F913F912F91C2
:100E70000F900FBE0F901F9018951F920F920FB6F4
:100E80000F9211242F938F939F93EF93FF93E091F1
:100E90006803F09169038081E0916E03F0916F0324
:100EA00082FD12C09081809171038F5F8F732091BA
:100EB0007203821751F0E0917103F0E0E85AFC4FA1
:100EC000958F8093710301C08081FF91EF919F9175
:100ED0008F912F910F900FBE0F901F9018951F9319
:100EE000CF93DF93EC01162F60E0812F0E944C140A
:100EF0008E8D81FD04C061E0812F0E941C141C872F
:100F0000612F70E0FB01E456FC4FE491ED87FB019B
:100F1000E857FC4FE491F0E0EE0FFF1FE258FC4F62
:100F2000859194919F878E87DF91CF911F9108952E
:100F30001F93CF93DF93EC01162F6E8D6695617032
:100F400081E06827812F0E941C1461E0812F0E949C
:100F50004C14612F70E0FB01E456FC4FE491E88BE8
:100F6000FB01E857FC4FE491F0E0EE0FFF1FEC5857
:100F7000FC4F859194919A8B898BDF91CF911F9132
:100F800008951F920F920FB60F9211242F933F9343
:100F90004F935F936F937F938F939F93AF93BF9381
:100FA000EF93FF93E0914802F0914902309709F4E2
:100FB00051C0968DA685B785858591FF04C09C910B
:100FC000892329F447C09C91892309F043C0A38950
:100FD000B4899C918589809589238C93868997898A
:100FE0000197F1F7608D718DA685B785558538E03D
:100FF00020E0CB010197F1F7822F90E0959587953E
:10100000282F4C91452309F02068315091F7868DA7
:1010100081FD20958091470290E001968F7399277A
:1010200030914602381749F0A0914702B0E0A3552D
:10103000BD4F2C938093470203C0868D8160868FBD
:10104000828D938D0197F1F7A389B4899C9185894D
:10105000892B8C93FF91EF91BF91AF919F918F91CD
:101060007F916F915F914F913F912F910F900FBEA4
:101070000F901F901895E0914802F0914902E817EF
:10108000F90769F4A389B4899C918589809589239E
:101090008C93109249021092480281E0089580E0FA
:1010A00008956093A9027093AA028093AB02909373
:1010B000AC02DC01CB01845D9E4FAF4FBF4F8093EC
:1010C000A5029093A602A093A702B093A80282E083
:1010D00090E09093A4028093A3020E94C4146093B2
:1010E0009F027093A0028093A1029093A2020895A0
:1010F000CF92DF92EF92FF920F931F930E94C4143E
:10110000C0909F02D090A002E090A102F090A202B5
:101110008B019C010C191D092E093F098091A90220
:101120009091AA02A091AB02B091AC02083E13408C
:1011300021053105D0F00196A11DB11D8093A902B2
:101140009093AA02A093AB02B093AC02B701A601A0
:1011500048515C4F6F4F7F4F40939F025093A002C6
:101160006093A1027093A202C9CF4091A502509151
:10117000A6026091A7027091A80284179507A6079E
:10118000B70788F1E0919D02F0919E02309759F1E6
:101190000995611571058105910519F00E945108A5
:1011A00022C08091A9029091AA02A091AB02B091B5
:1011B000AC02845D9E4FAF4FBF4F8093A5029093CA
:1011C000A602A093A702B093A80281E090E020912C
:1011D000A3023091A402232B11F480E090E09093BD
:1011E000A4028093A3026091A9027091AA02809147
:1011F000AB029091AC021F910F91FF90EF90DF90A6
:10120000CF9008954F925F926F927F928F929F92AC
:10121000AF92BF92CF92DF92EF92FF920F931F9304
:10122000CF93DF934B015C018091990290919A02D8
:10123000A0919B02B0919C0288169906AA06BB0653
:1012400009F4C2C08CE3C82ED12CE12CF12CC501CD
:10125000B401A70196010E949B1E60939604CA01E7
:10126000B901A70196010E949B1E60939704CA01D1
:10127000B90128E130E040E050E00E949B1E690186
:101280007A0160939804CA01B9016C5F7F4F8F4F58
:101290009F4F27E030E040E050E00E949B1E6F5FD0
:1012A00060939904412C512C320140E004E610E097
:1012B000C0E9D1E0242F30E02E54384FF901E3701B
:1012C000FF27309789F4C901B8010E94651F892B57
:1012D00031F4C901BE010E94651F892B29F48EE6F5
:1012E00091E0A0E0B0E004C08DE691E0A0E0B0E0C5
:1012F000480E591E6A1E7B1ED301C201AA27BB27B6
:10130000C816D906EA06FB0610F04F5FD3CF40930C
:101310009C04309799F4C90164E670E00E94651F4F
:10132000892B39F4C90160E971E00E94651F892B9E
:1013300029F48EE691E0A0E0B0E004C08DE691E0F3
:10134000A0E0B0E0481A590A6A0A7B0AC418D50816
:10135000E608F708C90164E670E00E94651FEC0129
:10136000C90160E971E00E94651FA6E0B1E020E0DC
:10137000213039F4309749F4209729F4009729F463
:1013800002C04C9103C04DE101C04CE150E060E06F
:1013900070E0C416D506E606F70640F0C41AD50A72
:1013A000E60AF70A2F5F11962C3011F72F5F209372
:1013B0009B04C394C0929A048092990290929A02DC
:1013C000A0929B02B0929C02DF91CF911F910F914E
:1013D000FF90EF90DF90CF90BF90AF909F908F9055
:1013E0007F906F905F904F9008950E9478080E94C0
:1013F000020980919B0490E008950E9478080E9461
:10140000020980919A0490E008950E9478080E9451
:1014100002098091960490E008950E9478080E9445
:1014200002098091970490E008950E9478080E9434
:1014300002098091980490E0089580E00895DC010D
:101440001A96ED91FC911B9720E030E00994DC01A5
:101450001696ED91FC91179720E030E040E069E1AD
:101460000994DC011696ED91FC91179720E030E08D
:1014700040E068E109949A01DC011696ED91FC9137
:101480001797462F67E10994EF92FF920F931F93EE
:10149000CF93DF931F92CDB7DEB77C018B01D801CC
:1014A0006C916731E1F078F46531A0F1F801418188
:1014B0004983D7011696ED91FC91179720E030E013
:1014C000C701099524C06A31A8F06E3F19F5F801EB
:1014D0004181498369E2C7010E941F0A18C0F801CF
:1014E00081818983AE014F5F5F4F61E0C7010E9438
:1014F0003B0A0DC00F5F1F4FD7011696ED91FC916F
:10150000179720E030E040E0C7010995C8CF0E5F93
:101510001F4FC5CF0F90DF91CF911F910F91FF907B
:10152000EF900895462FDC011696ED91FC911797E8
:1015300020E030E066E10994462FDC011696ED913B
:10154000FC91179720E030E065E10994EF92FF925B
:101550000F931F93CF93DF93EC01142F79016D301C
:10156000A9F118F46B3039F15FC06E3009F441C055
:101570006F3009F059C00E94310AF7018381088950
:10158000F8E08F9F000D112460E4CE010E949C0AB8
:10159000602F62956F706061CE010E949C0A602F7F
:1015A0006F70CE010E94920AF7016481606BCE01D8
:1015B0000E94920A29C0411103C065E271E002C095
:1015C00060E271E0CE010E94440A71C0411108C07E
:1015D00069E171E00E94440AE881F981828907C0CB
:1015E00062E171E00E94440AE881F9818389888B75
:1015F0005EC00E94310A61E8CE010E949C0A612F00
:10160000CE010E94920A0CC0F70140815181628193
:10161000660F660F660FCE010E943B0A1150A1F7BC
:10162000CE010E94270A43C0693031F48FE591E072
:101630009983888382E0DBCF6A30B9F5EA85FB8540
:1016400020E030E040E068E2CE010995EE81FF81C4
:1016500020E030E040E064E1CE01099541E06BE438
:10166000CE010E941F0AE881F981448169E2CE011E
:101670000E941F0A40E06BE4CE010E941F0AE8812D
:10168000F981448169E2CE010E941F0A41E06BE4C6
:10169000CE010E941F0AE881F981458169E2CE01ED
:1016A0000E941F0A6AE271E08DCF80E001C081E0F4
:1016B000DF91CF911F910F91FF90EF900895DC0182
:1016C0001896ED91FC91199720E030E040E069E137
:1016D0000994DC011896ED91FC91199720E030E017
:1016E00040E068E10994662329F06A3019F0862FFA
:1016F00090E008958FEF9FEF0895089581E090E0C6
:101700003091F8032091F703321710F480E090E055
:1017100091958195910908958091F8039091F7032F
:10172000891730F48F5F8093F80380E090E008958C
:101730008FEF9FEF08958091F70390E02091F803D9
:10174000821B9109089585ED8093BC008091BC00B7
:1017500084FDFCCF10927602089540913303262F2A
:1017600030E0240F311D21323105DCF42091760266
:101770002430C9F4FC0180E090E0861758F43091E1
:1017800033032191DC01AF5EBC4FA30FB11D2C933D
:101790000196F3CF80913303680F6093330380E0A9
:1017A000089581E0089582E00895CF92DF92EF924C
:1017B000FF920F931F93CF93DF937C01262F972FD8
:1017C0008A0180917702882391F0C62FD72F6E016E
:1017D000C40ED51ECC15DD0571F06991D701ED91D0
:1017E000FC910190F081E02DC7010995F3CF642FA2
:1017F000822F0E94AD0BC801DF91CF911F910F91F5
:10180000FF90EF90DF90CF900895CF93DF931F92DA
:10181000CDB7DEB76983209177022223D1F02091E2
:10182000F503203240F021E030E0FC0133832283D5
:1018300080E090E015C08091F603E82FF0E0E858D2
:10184000FD4F998190838F5F8093F6038093F5031A
:1018500005C061E0CE0101960E94AD0B81E090E0F1
:101860000F90DF91CF910895CF92DF92EF92FF9288
:101870000F931F93CF93DF936C01EB017B01E40E79
:10188000F51E00E010E0CE15DF0561F06991D6018C
:10189000ED91FC910190F081E02DC6010995080FB2
:1018A000191FF1CFC801DF91CF911F910F91FF90C8
:1018B000EF90DF90CF900895089580E090E0089534
:1018C000CF93DF931F92CDB7DEB76983BE016F5F01
:1018D0007F4F0E94EA130F90DF91CF910895EF920E
:1018E000FF921F93CF93DF93EC01162F7A010E9492
:1018F000690B60E4CE010E94600CE885F9859701D0
:10190000412F67E1CE010995CE01DF91CF911F9163
:10191000FF90EF900C945F0BEF92FF921F93CF9389
:10192000DF9300D0CDB7DEB77C01142F673128F4E8
:10193000653140F4643149F141C0673191F06A3159
:1019400070F03CC00E94690B60E0C7010E94600C0F
:10195000612FC7010E94600CC7010E945F0B81E0EC
:101960002EC0A901193160F068E1C70129833A83CB
:101970000E946F0C185129813A81285E3F4FF1CFA8
:10198000612FC7010E946F0CEACFDC0152968C9147
:1019900052978F3F19F488E752968C93D701189687
:1019A000ED91FC911997412F64E1C7010F900F90C1
:1019B000DF91CF911F91FF90EF90099480E00F90FD
:1019C0000F90DF91CF911F91FF90EF9008950C94AD
:1019D0009F10CF93DF938091D5040E948814909339
:1019E000DC048093DB048091D7040E9488149093D8
:1019F000DE048093DD048091D9040E9488149093C2
:101A0000E0048093DF04C091DB04D091DC042091DA
:101A1000E1043091E204BE01621B730B77FF03C047
:101A20007195619571097093E8046093E704A09142
:101A3000DD04B091DE042091E3043091E404AD01B3
:101A4000421B530B57FF03C05195419551095093C9
:101A5000EA044093E9042091E5043091E604FC0196
:101A6000E21BF30B9F01F7FF03C03195219531096C
:101A70003093EC042093EB04E091ED04F091EE043C
:101A8000E617F70734F0E417F5071CF0E217F30741
:101A9000BCF42091EF043091F004232BA9F42091A1
:101AA000F1043091F2042F5F3F4F3093F204209302
:101AB000F10421E030E03093F0042093EF0404C0FF
:101AC0001092F0041092EF04D093E204C093E1046A
:101AD000B093E404A093E3049093E6048093E504B8
:101AE0008091F1049091F20490930E0580930D057E
:101AF000DF91CF910C949F10FC0104962081DB01B3
:101B00002C936E5F7F4F219111962C93E817F90764
:101B1000A9F7089590E09C0144E0220F331F4A95F5
:101B2000E1F7822B932B8F709F709C01220F331F44
:101B3000220F331F822B932B837393739C01220FED
:101B4000331F822B932B857595759C01220F331FB4
:101B5000822B932B0895CF93DF93DC011C96ED919C
:101B6000FC911D9784913196E491681720F1E61756
:101B700010F170E0681B710983E0660F771F8A958A
:101B8000E1F7CB010296EA01665F7F4F1C96ED916B
:101B9000FC911D97E80FF91FE491E99301968617D0
:101BA0009707A1F751968C91882399F0FA019A0131
:101BB000285F3F4F08C0FA01CA0108961192E81742
:101BC000F907E1F7EFCF808180958193E217F30762
:101BD000D1F7DF91CF910895CF92DF92EF92FF92EC
:101BE0000F931F93CF93DF93CDB7DEB728970FB630
:101BF000F894DEBF0FBECDBFFC01F6A86A3021F419
:101C0000F394F6AA15AA18C08C01E5A86C0184E02B
:101C1000C80ED11CAE014F5F5F4FC6010E94AB0DD5
:101C20009E012F5F3F4F4F2D6E2DC6010E94E30F87
:101C3000F80185A98F5F85AB81E090E028960FB60B
:101C4000F894DEBF0FBECDBFDF91CF911F910F91F2
:101C5000FF90EF90DF90CF9008951F920F920FB6F4
:101C60000F9211242F933F934F935F936F937F9322
:101C70008F939F93AF93BF93EF93FF938091B9009E
:101C8000887F803609F49CC068F5883209F45BC00F
:101C900090F4803109F454C038F4882309F4F6C074
:101CA000883009F44DC0F6C0883109F44CC0803248
:101CB00009F45DC0EFC0803409F468C048F4803393
:101CC00009F455C0883309F0E5C080937402D8C088
:101CD000803509F44FC0883509F45DC0883409F0B7
:101CE000D9C0D6C0883909F4C7C0A8F4883709F428
:101CF00067C038F4883609F463C0803709F460C0DF
:101D0000C9C0883809F4B8C0803909F45FC0803888
:101D100009F0C0C05BC0803B09F486C038F4803A4B
:101D200009F466C0883A09F47FC0B4C0803C09F465
:101D3000A7C0883C09F4A4C0883B09F48AC0AAC0A3
:101D40008091510210C09091730280917202981795
:101D500070F5E091730281E08E0F80937302F0E0E2
:101D6000EE5AFD4F80818093BB0085EC86C0809346
:101D700074028EC0E091730281E08E0F8093730233
:101D80008091BB00F0E0EE5AFD4F8083909173028A
:101D9000809172026EC0E091730281E08E0F809399
:101DA00073028091BB00F0E0EE5AFD4F808380917A
:101DB000750281116DC081E08093500284EA61C098
:101DC00083E08093760210925703CFCF8091570320
:101DD000803208F051C0E091570381E08E0F80936C
:101DE00057038091BB00F0E0E95CFC4F8083BDCFDE
:101DF00085EC8093BC00109276028091570380326C
:101E000030F4E0915703F0E0E95CFC4F1082609100
:101E1000570370E0E0913503F091360387E393E0D8
:101E200009951092570336C084E080937602109291
:101E3000340310923303E0913103F091320309959A
:101E400080913303811105C081E0809333031092A8
:101E50001103E091340381E08E0F80933403F0E0AE
:101E6000EF5EFC4F80818093BB00909134038091A2
:101E70003303981708F479CF85E88093BC000AC033
:101E800085EC8093BC001092760204C0109274021C
:101E90000E94A30BFF91EF91BF91AF919F918F9102
:101EA0007F916F915F914F913F912F910F900FBE56
:101EB0000F901F9018951092760281E08093750222
:101EC0001092500261E082E10E941C1461E083E103
:101ED0000E941C14E9EBF0E080818E7F808380817A
:101EE0008D7F808380E28093B80085E48093BC007E
:101EF00008956115710579F0FB0101900020E9F763
:101F00003197AF01461B570BDC01ED91FC9102802C
:101F1000F381E02D099480E090E00895FC01608158
:101F2000718186EA94E00C94790F1F93CF93DF932D
:101F300000D000D01F92CDB7DEB71C8221E02B83EA
:101F40009A838983E0910904F0910A0411891D8222
:101F5000A0910904B0910A04E0910D04F0910E04DF
:101F60009E012F5F3F4F50964C916FE089E094E0C7
:101F700009958D818F5F8D83811750F30F900F909E
:101F80000F900F900F90DF91CF911F910895CF93F5
:101F9000DF93CDB7DEB728970FB6F894DEBF0FBE3C
:101FA000CDBFCE01019628E0FC0111922A95E9F7F8
:101FB0000E94950F28960FB6F894DEBF0FBECDBFD6
:101FC000DF91CF910895CF93DF9300D000D01F927F
:101FD000CDB7DEB76C834D8341E04B833A832983D1
:101FE000DC011496ED91FC9115979E012F5F3F4FF8
:101FF0006FE009950F900F900F900F900F90DF9169
:10200000CF9108955F926F927F928F929F92AF923D
:10201000BF92CF92DF92EF92FF920F931F93CF93D5
:10202000DF93CDB7DEB768970FB6F894DEBF0FBE6B
:10203000CDBFF82E10921E046B01E12C8E010F5EB5
:102040001F4F88E0582E500EF60161916F01E0910C
:102050000B04F0910C0489E094E009958F3FFFEFA9
:102060009F0709F455C08E3F2FEF920769F3A8012F
:10207000682F89E094E00E94AB0DCE0109963C01E7
:10208000FE0131964F015801F50181915F010E94D7
:102090008A0DF30191933F01F40181934F015A108E
:1020A000F3CFB801CE0101960E947C0D980143E068
:1020B0006F2D89E094E00E94E30FB801CE010596F0
:1020C0000E947C0DBB24B394BF0C980143E06B2DA0
:1020D00089E094E00E94E30FB801CE0109960E94C6
:1020E0007C0D980144E06F2D89E094E00E94E30F9D
:1020F000B801CE010D960E947C0D980144E06B2D35
:1021000089E094E00E94E30FF394F394E3949CCF6E
:102110008E2D68960FB6F894DEBF0FBECDBFDF914F
:10212000CF911F910F91FF90EF90DF90CF90BF90D4
:10213000AF909F908F907F906F905F900895CF9217
:10214000DF92EF92FF92CF93DF93CDB7DEB7E697A2
:102150000FB6F894DEBF0FBECDBF80910B05813066
:1021600009F421C208F43FC0823009F441C283302F
:1021700009F0E3C260E0809111050E941C141092E6
:102180001505109216051092180510921705109259
:102190001A05109219051092100510920F05109251
:1021A0003A0481E080933B0463E172E085E094E0CF
:1021B0000E9403076CE172E085E094E00E9403074F
:1021C00064E272E085E094E00E9403076EE272E050
:1021D00085E094E00E9403076CE372E085E094E000
:1021E0000E940307AAC210923A0482E080933B0443
:1021F00062E072E0CE01C1960E945B0662E072E08E
:10220000CE018B960E945B0662E072E0CE0185965D
:102210000E945B0662E072E0CE014F960E945B0670
:1022200062E072E0CE0149960E945B0662E072E0D5
:10223000CE0143960E945B060E94150A0A970CF590
:102240000E94150A4AE0BC01CE0107960E944F0386
:1022500062E272E0CE0101960E945B06BE01695FF8
:102260007F4FCE0101960E94AF02BC01CE01C19604
:102270000E943303CE0101960E944A03CE010796C5
:1022800011C00E94150A4AE0BC01CE0101960E94CD
:102290004F03BE016F5F7F4FCE01C1960E94C20205
:1022A000CE0101960E944A030E940D0A0A970CF57E
:1022B0000E940D0A4AE0BC01CE0107960E944F031E
:1022C00062E272E0CE0101960E945B06BE01695F88
:1022D0007F4FCE0101960E94AF02BC01CE018B96CA
:1022E0000E943303CE0101960E944A03CE01079655
:1022F00011C00E940D0A4AE0BC01CE0101960E9465
:102300004F03BE016F5F7F4FCE018B960E94C202CA
:10231000CE0101960E944A030E94050A0A970CF515
:102320000E94050A4AE0BC01CE0107960E944F03B5
:1023300062E272E0CE0101960E945B06BE01695F17
:102340007F4FCE0101960E94AF02BC01CE0185965F
:102350000E943303CE0101960E944A03CE010796E4
:1023600011C00E94050A4AE0BC01CE0101960E94FC
:102370004F03BE016F5F7F4FCE0185960E94C20260
:10238000CE0101960E944A030E94FD090A970CF5AE
:102390000E94FD094AE0BC01CE0107960E944F034E
:1023A00062E272E0CE0101960E945B06BE01695FA7
:1023B0007F4FCE0101960E94AF02BC01CE014F9625
:1023C0000E943303CE0101960E944A03CE01079674
:1023D00011C00E94FD094AE0BC01CE0101960E9495
:1023E0004F03BE016F5F7F4FCE014F960E94C20226
:1023F000CE0101960E944A030E94F5090A970CF546
:102400000E94F5094AE0BC01CE0107960E944F03E5
:1024100062E272E0CE0101960E945B06BE01695F36
:102420007F4FCE0101960E94AF02BC01CE014996BA
:102430000E943303CE0101960E944A03CE01079603
:1024400011C00E94F5094AE0BC01CE0101960E942C
:102450004F03BE016F5F7F4FCE0149960E94C202BB
:10246000CE0101960E944A030E9478080E94020948
:1024700060919C0470E06E54784F4AE0CE01019662
:102480000E944F03BE016F5F7F4FCE0143960E94B3
:10249000C202CE0101960E944A03BE016F5C7F4FCB
:1024A000CE0101960E947B036CE272E0CE010196A0
:1024B0000E949602BE01655D7F4F0E94AF026CE2F2
:1024C00072E00E949602BE016B5D7F4F0E94AF02D8
:1024D000BC01CE010D960E947B03CE0101960E94A5
:1024E0004A03BE01615E7F4FCE0101960E947B03CD
:1024F00061E172E0CE0101960E949602BE01675E24
:102500007F4F0E94AF0261E172E00E949602BE011D
:102510006D5E7F4F0E94AF02BC01CE0107960E9404
:102520007B03CE0101960E944A0383E080933A0424
:1025300081E080933B04E0910504F09106044B8513
:102540005C856F8178850280F381E02D85E094E0E1
:1025500009956D857E8583E79BE090930C048093BD
:102560000B0480E00E940210CE0107960E944A03ED
:10257000CE010D960E944A03CE0143960E944A0363
:10258000CE0149960E944A03CE014F960E944A030B
:10259000CE0185960E944A03CE018B960E944A0383
:1025A000CE01C19622C083E080933A0482E08093FA
:1025B0003B0463E072E085E094E00E9403076091D1
:1025C0000D0570910E054AE0CE0101960E944F0361
:1025D00069817A8183E79BE090930C0480930B04DC
:1025E00082E00E940210CE0101960E944A03A5C01B
:1025F00061E0809111050E941C14809113050E94D6
:1026000088147C0120911B0530911C05281739077F
:102610000CF047C080911F0590912005820F931FF9
:10262000E816F906F4F580911605882369F10E94F1
:10263000C4142091170530911805621B730B072EE7
:10264000000C880B990B0E94D81D20E030E04AE76F
:1026500054E40E94BD1E9B01AC0160E070E080E785
:1026600092E40E94BD1E0E942F1FCB016AE070E021
:102670000E94651F8A5B9F4F90931A0580931905EE
:10268000109215051092160580911505811109C04B
:102690000E94C414709318056093170581E080931D
:1026A000150580911D0590911E05E816F90684F424
:1026B00020911505222361F020911F0530912005FE
:1026C000821B930B8E159F051CF481E080931605E9
:1026D00082E080933A0484E080933B046DE072E0F2
:1026E00085E094E00E94790FC0901905D0901A05FA
:1026F000D0921005C0920F050D2C000CEE08FF08BB
:10270000F7FE14C0E0910504F09106040190F081F9
:10271000E02D6DE285E094E0099544275527BA0144
:102720004C195D096E097F092AE003C02AE0B70150
:10273000A60185E094E00E947006E6960FB6F89434
:10274000DEBF0FBECDBFDF91CF91FF90EF90DF9046
:10275000CF900895833081F028F4813099F0823051
:10276000A1F008958730A9F08830B9F08430D1F411
:10277000809180008F7D03C0809180008F7780934F
:102780008000089584B58F7702C084B58F7D84BDA5
:1027900008958091B0008F7703C08091B0008F7D45
:1027A0008093B0000895CF93DF93FC01448155815D
:1027B0006081718188E593E00E948503EC0160E00F
:1027C00072E088E593E00E94790F8C0F9D1FDF91E6
:1027D000CF9108959B01DC011896ED91FC9119971A
:1027E00041E067E10994CF93DF93282F30E0F901AE
:1027F000E055FC4F8491F901E456FC4FD491F90166
:10280000E857FC4FC491CC2391F081110E94AA1388
:10281000EC2FF0E0EE0FFF1FE258FC4FA591B491B2
:10282000EC91ED2381E090E021F480E002C080E0B3
:1028300090E0DF91CF9108951F93CF93DF93282FDE
:1028400030E0F901E055FC4F8491F901E456FC4F6A
:10285000D491F901E857FC4FC491CC23C9F0162F4D
:1028600081110E94AA13EC2FF0E0EE0FFF1FEC582D
:10287000FC4FA591B4918FB7F894111105C09C91AC
:10288000ED2FE095E92302C0EC91ED2BEC938FBF87
:10289000DF91CF911F910895CF93DF9390E0FC01DA
:1028A000E456FC4F2491FC01E857FC4F84918823A7
:1028B00061F190E0880F991FFC01E659FC4FC5912A
:1028C000D491FC01EC58FC4FA591B491611109C061
:1028D0009FB7F8948881209582238883EC912E23DA
:1028E0000BC0623061F49FB7F8943881822F8095D5
:1028F00083238883EC912E2B2C939FBF06C08FB728
:10290000F894E8812E2B28838FBFDF91CF91089513
:102910008E3008F08E508770806480937C008091A8
:102920007A00806480937A0080917A0086FDFCCFE3
:10293000809178002091790090E0922B08953FB724
:10294000F8948091A2049091A304A091A404B09162
:10295000A50426B5A89B05C02F3F19F00196A11D1F
:10296000B11D3FBFBA2FA92F982F8827820F911D25
:10297000A11DB11DBC01CD0143E0660F771F881F6B
:10298000991F4A95D1F708952FB7F89460919E0446
:1029900070919F048091A0049091A1042FBF08958D
:1029A000CF93DF932091CB053091CC052A303105B0
:1029B0000CF048C0E9E4F5E0C0E0D0E021913191AD
:1029C000232BD9F541155105E9F1DC01CB01FE01BD
:1029D000EE0FFF1FEE0FFF1FE35AFA4F8083918324
:1029E000A283B383FE01EE0FFF1FE75BFA4F518313
:1029F0004083FE01EE0FFF1FEB57FA4F118210824A
:102A0000FE01E355FA4F81E080830E94C414FE0169
:102A1000EE0FFF1FEE0FFF1FEF5DFA4F6083718314
:102A2000828393838091CB059091CC0501969093FE
:102A3000CC058093CB05CE0107C02196CA30D105C5
:102A400009F0BCCF8FEF9FEFDF91CF9108951F92D8
:102A50000F920FB60F9211242F933F938F939F9352
:102A6000AF93BF9380919E0490919F04A091A00486
:102A7000B091A10430919D0426E0230F2D3720F45E
:102A80000296A11DB11D05C029E8230F0396A11DC3
:102A9000B11D20939D0480939E0490939F04A09366
:102AA000A004B093A1048091A2049091A304A091EA
:102AB000A404B091A5040196A11DB11D8093A204A8
:102AC0009093A304A093A404B093A504BF91AF91E5
:102AD0009F918F913F912F910F900FBE0F901F905C
:102AE0001895CF93DF93CDB7DEB7EC970FB6F89478
:102AF000DEBF0FBECDBF789484B5826084BD84B53F
:102B0000816084BD85B5826085BD85B5816085BDE8
:102B100080916E00816080936E00109281008091A0
:102B20008100826080938100809181008160809328
:102B30008100809180008160809380008091B1004D
:102B400084608093B1008091B00081608093B00078
:102B500080917A00846080937A0080917A0082600C
:102B600080937A0080917A008E7F80937A008091A2
:102B70007A00806880937A001092C100E091680327
:102B8000F091690382E08083E0916403F091650332
:102B90001082E0916603F091670387E680831092CC
:102BA0007003E0916C03F0916D0386E08083E09107
:102BB0006A03F0916B03808180618083E0916A03F6
:102BC000F0916B03808188608083E0916A03F091CB
:102BD0006B03808180688083E0916A03F0916B03CE
:102BE00080818F7D80831092C1041092C004109266
:102BF000BF041092BE041092BD041092BC048DEC70
:102C000090E09093C3048093C2049091B2049631F3
:102C100008F057C025E530E03093BD042093BC0494
:102C20002BEC30E03093BF042093BE0420E930E069
:102C30003093C1042093C00420916800983050F074
:102C400031E09E3008F430E081E001C0880F3A9511
:102C5000EAF701C084E0822B80936800983038F056
:102C60009E3040F0963148F020E030E008C02DE67C
:102C700030E005C02BE630E002C02CE630E03093B7
:102C8000BA042093B904983030F481E001C0880F71
:102C90009A95EAF70EC0292F30E09E3018F428509C
:102CA000310902C02E50310981E001C0880F2A95F8
:102CB000EAF78093BB048091C2049091C30401970A
:102CC000F1F78091C0049091C104892B21F180918A
:102CD00048029091490224E0863A9207E1F0009779
:102CE00011F00E943B088091C4048E7F8093C4043D
:102CF000109247021092460286EA94E090934902AD
:102D000080934802E091B904F091BA0490818091D7
:102D1000BB04892B80836FEB71E088E593E00E9410
:102D20000307E0910D04F0910E0420E030E040E054
:102D30006AE089E094E009950E94C70FE0910D04D4
:102D4000F0910E0420E030E040E06BE089E094E098
:102D500009950E94C70F10923A0410923B0488E62E
:102D600090E0909316048093150460ED71E088E57F
:102D700093E00E94030760E08091D5040E944C1408
:102D800060E08091D7040E944C1460E08091D904E7
:102D90000E944C148091D5040E9488149093E20400
:102DA0008093E1048091D7040E9488149093E404F6
:102DB0008093E3048091D9040E9488149093E604E0
:102DC0008093E5048091FE04811102C060E001C09F
:102DD00062E08091F9040E944C148091F9040E94F1
:102DE000F31321E0892B09F420E020930005809162
:102DF000FF04882321F081E08227809300050E9450
:102E0000C4146093030570930405809305059093A3
:102E1000060520910005209301051092020560939C
:102E20000705709308058093090590930A0561E0F2
:102E30008091C5040E944C1460E08091C7040E94F8
:102E40004C1460E08091C5040E941C1480E1E5EC04
:102E5000F4E0A1E1B5E001900D928A95E1F760E61A
:102E600077E78BED9BE50E94510847EE5CE068EE4A
:102E700073E080E090E00E94D01490934F02809322
:102E80004E0249EE5CE064E670E080E090E00E9473
:102E9000D01490934B0280934A0247EE5CE068ECBA
:102EA00070E080E090E00E94D01490934D028093F7
:102EB0004C028A30910524F4FC01E355FA4F10824C
:102EC000CC24C394D12C52E0252E312C8E010F5FDF
:102ED0001F4F0E94C4144B015C0181E295E09CAF3E
:102EE0008BAF39E9E32E35E0F32EF70120E030E037
:102EF000178E168ECF0180559109DC018D919C9122
:102F0000892B09F444C0ABADBCAD4D915D916D9181
:102F10007C911397DC964D905D906D907C90DF973F
:102F2000D501C401841B950BA60BB70B8415950521
:102F3000A605B70560F1440D551D661D771DABADA7
:102F4000BCAD4D935D936D937C931397C9018355ED
:102F50009A4FDC018C918823D1F0CF014497DC019A
:102F60004D915C914115510519F4D78EC68E0FC055
:102F7000808191818417950754F4D78EC68E01966F
:102F8000918380838417950714F0378E268E2F5FE8
:102F90003F4F8BAD9CAD04969CAF8BAF32962A30E1
:102FA000310509F0A5CF99E4A92E95E0B92E2DE5BC
:102FB000822E25E0922E612C712CD7015E968D9188
:102FC0009C915F978130910519F0029731F02BC0E9
:102FD000D501ED91FC91099526C0D501ED91FC91AB
:102FE00009958091CB059091CC050097E1F0F50112
:102FF00020813181232BB9F011821082F301E35536
:10300000FA4F1082D7015F961C921E925E97F401D0
:1030100010821182128213821D921C92019790934A
:10302000CC058093CB05FFEF6F1A7F0A22E0A20E3A
:10303000B11C84E0880E911C92E0E90EF11CAAE01C
:103040006A16710409F0B9CF0E94C4144B015C01E7
:103050008091F9040E94F31321E0892B09F420E008
:103060008091FF04882311F081E0282780910705D3
:1030700090910805A0910905B0910A05B501A40138
:10308000481B590B6A0B7B0B8091FA049091FB044F
:10309000A091FC04B091FD04481759076A077B070B
:1030A00018F41092020513C0809100058093010569
:1030B00020930005822780930205882341F08092A7
:1030C000070590920805A0920905B0920A05809222
:1030D000030590920405A0920505B092060586EAC4
:1030E00094E00E94F804892B71F086EA94E00E9433
:1030F000100589831A8241E050E0B80183EF94E023
:103100000E94680228C062E072E083EF94E00E94AF
:10311000100281111AC063EF74E0C8010E947B03A2
:1031200062E072E083EF94E00E941C031AAA19AADD
:103130001CAA1BAA1EAA1DAAB801CE01C1960E94F4
:10314000C202C8010E944A030CC062E072E083EF31
:1031500094E00E941C0362E072E0CE01C1960E94DE
:103160005B0662E072E0C8010E945B0662E072E00A
:10317000CE0107960E945B0662E072E0CE010D96DA
:103180000E945B0662E072E0CE0143960E945B06FD
:1031900062E072E0CE0149960E945B068DA99EA96D
:1031A000892B09F499C0CE01C1960E94D313E12C5A
:1031B000F12CA12CB12C86E0982E8DA99EA9E816A1
:1031C000F90618F589A99AA9009751F0FC01EE0DAE
:1031D000FF1D80818C3229F4BFEFAB1ABB0A11C0EE
:1031E00080E08F8F18A29A9CC0019B9C900D1124A7
:1031F00041E050E0BE01615E7F4F800F911F0E9451
:103200006802EFEFEE1AFE0AD8CF6CEE71E0C8014B
:103210000E941002882369F08F819885009719F029
:103220000E945A1D03C060E070E0CB010E9451086B
:1032300053C06FEE71E0C8010E941002882309F4A8
:103240004FC060910D0570910E054AE0CE01859644
:103250000E944F0362EF71E0CE018B960E945B06E5
:10326000BE016B5D7F4FCE018B960E94AF02BC0109
:10327000CE014F960E947B03CE014F960E948E0F87
:10328000CE014F960E944A03CE018B960E944A03BC
:10329000CE0185960E944A0360910D0570910E053E
:1032A0004AE0CE014F960E944F0362EF71E0CE01DB
:1032B00085960E945B06BE01615E7F4FCE018596BA
:1032C0000E94AF020E94D313CE0185960E944A034A
:1032D000CE014F960E944A03CE014F967C014BC00F
:1032E00066EF71E0C8010E9410028823B9F1609175
:1032F0000F05709110054AE0CE0185960E944F039C
:1033000069EF71E0CE018B960E945B06BE016B5D9A
:103310007F4FCE018B960E94AF02BC01CE014F962B
:103320000E947B03CE014F960E948E0FCE014F96D6
:103330000E944A03CE018B960E944A03CE018596D5
:103340000E944A0360910F05709110054AE0CE017A
:103350004F960E944F0369EF71E0A9CF6DEF71E0C6
:10336000C8010E941002882309F4B6CF1092F2041B
:103370001092F104B1CF96E0E91AF108C7010E945A
:103380004A03E016F106B9F7CE01C1960E944A033E
:1033900080910005811135C080910205882389F153
:1033A00080910B05813009F03FC080914E029091D1
:1033B0004F028A30910524F4FC01E355FA4F108244
:1033C00080914C0290914D028A3091052CF4FC01C1
:1033D000E355FA4F21E020830E94C70F10923A0470
:1033E00010923B0420910B05422F50E080910C0578
:1033F00090E001974817590799F410920B050E9425
:103400009F100E94150A892B41F40E940D0A892BF6
:1034100021F40E94050A892BE1F00E94810459CD14
:103420002F5F20930B05EBCF813028F480914E0263
:1034300090914F02C9CF823079F680914C029091E1
:103440004D028A30910594F7FC01E355FA4F108242
:10345000EDCF1092F2041092F104DFCFAF92BF9241
:10346000CF92DF92EF92FF920F931F93CF93DF9350
:10347000CDB7DEB76F970FB6F894DEBF0FBECDBFE6
:103480000DE811E010933D0400933C0410923E04BB
:1034900010923F04109240041092410410925B037A
:1034A00010925A0338EEC32E33E0D32EE12CF12CC8
:1034B000C0925C03D0925D03E0925E03F0925F03E2
:1034C0008BE791E0909359038093580385EC90E04B
:1034D000909365038093640384EC90E0909367037A
:1034E0008093660380EC90E0909369038093680377
:1034F00081EC90E090936B0380936A0382EC90E000
:1035000090936D0380936C0386EC90E090936F032F
:1035100080936E03109271031092720310927303E2
:10352000109274031092F8031092F7031092F603AE
:103530001092F5030E945B0F109343040093420422
:1035400010924404109245041092460410924704CD
:10355000109349040093480410924A0410924B04BB
:1035600010924C0410924D0410934F0400934E049B
:10357000109250041092510410925204109253046D
:10358000109355040093540410925604109257045B
:10359000109258041092590410936104009360042F
:1035A00010926204109263041092640410926504F5
:1035B00010935B0400935A0410925C0410925D0413
:1035C00010925E0410925F041093670400936604E7
:1035D000109268041092690410926A0410926B04AD
:1035E00010936D0400936C0410926E0410926F049B
:1035F000109270041092710410937304009372047B
:10360000109274041092750410927604109277044C
:10361000109379040093780410927A0410927B043A
:1036200010927C0410927D0410937F0400937E041A
:1036300010928004109281041092820410928304EC
:1036400010938504009384041092860410928704DA
:10365000109288041092890410938B0400938A04BA
:1036600010928C0410928D0410928E0410928F048C
:10367000109391040093900410929204109293047A
:1036800010929404109295041092FC031092FB0384
:10369000C092FD03D092FE03E092FF03F09200047B
:1036A00083E991E09093FA038093F9030E94C41494
:1036B0004DEA55E0E9E4F5E001E215E0DA011D929A
:1036C000AD0111921192D8016D937D938D939D93CD
:1036D0008D019F01225B3F4FD9011D921C92B5E0E5
:1036E000ED35FB0759F71092CC051092CB051092DF
:1036F0000B0584E080930C0510920E0510920D05C9
:103700001092100510920F051092150510921605D3
:10371000109218051092170510921A0510921905AB
:103720008AE8C82E82E0D82ED0921C05C0921B05D4
:1037300090E9E92EFF24F394F0921E05E0921D0516
:1037400000ED17E01093200500931F0586E080939D
:10375000F90489E190E0A0E0B0E08093FA0490934E
:10376000FB04A093FC04B093FD0481E08093FE046D
:103770008093FF0462E072E083EF94E00E945B06B6
:103780001C821B8288EE93E0A0E0B0E08D839E83D4
:10379000AF83B88721EBA22E21E0B22EBA82A98294
:1037A000188E1F8A1A8E198E1C8E1B8E1E8E1D8ED1
:1037B0008F8D8E7F8D7F8F8F68E0CE0101960E9466
:1037C000980767E0CE0101960E946F078B819C816C
:1037D0009093A9048093A8048D819E81AF81B885C0
:1037E0008093AA049093AB04A093AC04B093AD046F
:1037F00089859A85AB85BC858093AE049093AF0490
:10380000A093B004B093B1048D858093B2048E85EB
:103810008093B3048F8598899093B5048093B40402
:1038200089898093B6048A899B899093B804809390
:10383000B7048C899D899093BA048093B9048E89CA
:103840008093BB048F89988D9093BD048093BC04B2
:10385000898D9A8D9093BF048093BE048B8D9C8D2F
:103860009093C1048093C0048D8D9E8D9093C3046A
:103870008093C2049F8D8091C40490FB80F996953B
:10388000917090FB81F98093C404BA82A982CE0121
:1038900001960E943B0862E072E083EF94E00E9490
:1038A0001C038FE090E09093D6048093D50480E1D0
:1038B00090E09093D8048093D70481E190E09093B6
:1038C000DA048093D9041092DC041092DB04109285
:1038D000DE041092DD041092E0041092DF041092D6
:1038E000E8041092E7041092EA041092E90410929E
:1038F000EC041092EB041092E2041092E104109296
:10390000E4041092E3041092E6041092E50488E2C5
:1039100090E09093EE048093ED041092F0041092E6
:10392000EF041092F2041092F1041092C904109264
:10393000CA041092CC041092CB041092CE041092C0
:10394000CD04D092D004C092CF04F092D204E09281
:10395000D1041093D4040093D30485E090E09093B5
:10396000C6048093C5048EE090E09093C8048093D1
:10397000C704109208041092070410923A0410929F
:103980003B0485EA91E0909306048093050410922D
:103990000A041092090410921A0410921D04109245
:1039A0001E048FEF80931B0480932004E4E2F4E074
:1039B0009FEF86E18E0F1FEF91938E13FCCF86EA67
:1039C0009AE090930E0480930D048CE89CE0909311
:1039D000100480930F0481E395E090931204809388
:1039E000110480EC95E0909314048093130420E07C
:1039F00030E040E069E089E094E00E94A60A10937C
:103A00002F0410933004109331041092A9041092E3
:103A1000A80488EE93E0A0E0B0E08093AA0490931D
:103A2000AB04A093AC04B093AD0481EB91E0909310
:103A3000A7048093A6041092BD041092BC041092B7
:103A4000BF041092BE041092C1041092C0041092E0
:103A5000C3041092C2048091C4048E7F8D7F809332
:103A6000C40468E086EA94E00E94980767E086EA6A
:103A700094E00E946F076F960FB6F894DEBF0FBEFA
:103A8000CDBFDF91CF911F910F91FF90EF90DF900D
:103A9000CF90BF90AF90089581EB91E09093A704F1
:103AA0008093A60486EA94E00E943B0883EF94E0AA
:103AB0000C944A031F93FC0199278827BC01E894C2
:103AC00011911032E9F3193010F01E30C8F31B3297
:103AD00051F01D3249F4689406C00E94971D610F91
:103AE000711D811D911D119110531A30B0F33EF4D8
:103AF00090958095709561957F4F8F4F9F4F1F9147
:103B000008954532510520F4423010F00C948C1D7C
:103B1000FB011082CB010895BB274A3031F4992371
:103B200022F4BDE2909581959F4F0C94AD1D592FC5
:103B3000482F372F262F660F771F881F991F660F74
:103B4000771F881F991F620F731F841F951F660FB1
:103B5000771F881F991F0895BB27FB015527AA27A8
:103B6000880F991FAA1FA41710F0A41B839550510A
:103B7000B9F7A05DAA3308F0A95DA193009779F782
:103B8000B111B1931192CB010C94C61DDC01FC0163
:103B9000672F71917723E1F7329704C07C916D9381
:103BA00070836291AE17BF07C8F30895E89409C007
:103BB00097FB3EF490958095709561957F4F8F4F60
:103BC0009F4F9923A9F0F92F96E9BB279395F69576
:103BD000879577956795B795F111F8CFFAF4BB0FF4
:103BE00011F460FF1BC06F5F7F4F8F4F9F4F16C058
:103BF000882311F096E911C0772321F09EE8872FE2
:103C0000762F05C0662371F096E8862F70E060E09D
:103C10002AF09A95660F771F881FDAF7880F969516
:103C2000879597F9089597F99F6780E870E060E0BD
:103C300008959FEF80EC089500240A941616170645
:103C400018060906089500240A941216130614068D
:103C500005060895092E0394000C11F4882352F0F0
:103C6000BB0F40F4BF2B11F460FF04C06F5F7F4FA8
:103C70008F4F9F4F089557FD9058440F551F59F08F
:103C80005F3F71F04795880F97FB991F61F09F3F49
:103C900079F087950895121613061406551FF2CF72
:103CA0004695F1DF08C0161617061806991FF1CFC2
:103CB00086957105610508940895E894BB276627E9
:103CC0007727CB0197F908952F923F924F925F92F9
:103CD0006F927F928F929F92AF92BF92CF92DF921C
:103CE000EF92FF920F931F93CF93DF93CDB7DEB781
:103CF000CA1BDB0B0FB6F894DEBF0FBECDBF099415
:103D00002A88398848885F846E847D848C849B846B
:103D1000AA84B984C884DF80EE80FD800C811B8179
:103D2000AA81B981CE0FD11D0FB6F894DEBF0FBEA8
:103D3000CDBFED010895A1E21A2EAA1BBB1BFD0108
:103D40000DC0AA1FBB1FEE1FFF1FA217B307E4077A
:103D5000F50720F0A21BB30BE40BF50B661F771FD2
:103D6000881F991F1A9469F76095709580959095B2
:103D70009B01AC01BD01CF0108950E94D11E0C949E
:103D80002A1E0E94231E58F00E941C1E40F029F497
:103D90005F3F29F00C94131E51110C945E1E0C947D
:103DA000191E0E943B1E68F39923B1F3552391F32A
:103DB000951B550BBB27AA2762177307840738F09A
:103DC0009F5F5F4F220F331F441FAA1FA9F335D0F7
:103DD0000E2E3AF0E0E832D091505040E695001CAB
:103DE000CAF72BD0FE2F29D0660F771F881FBB1F65
:103DF000261737074807AB07B0E809F0BB0B802D43
:103E0000BF01FF2793585F4F3AF09E3F510578F06E
:103E10000C94131E0C945E1E5F3FE4F3983ED4F3A3
:103E2000869577956795B795F7959F5FC9F7880F42
:103E3000911D9695879597F90895E1E0660F771F94
:103E4000881FBB1F621773078407BA0720F0621B25
:103E5000730B840BBA0BEE1F88F7E09508950E9450
:103E6000361F6894B1110C945E1E08950E94431E83
:103E700088F09F5798F0B92F9927B751B0F0E1F02B
:103E8000660F771F881F991F1AF0BA95C9F714C0DB
:103E9000B13091F00E945D1EB1E008950C945D1E5A
:103EA000672F782F8827B85F39F0B93FCCF3869514
:103EB00077956795B395D9F73EF490958095709571
:103EC00061957F4F8F4F9F4F089597FB072E16F4F4
:103ED000009407D077FD09D00E94791F07FC05D018
:103EE0003EF4909581959F4F0895709561957F4F11
:103EF0000895AA1BBB1B51E107C0AA1FBB1FA61731
:103F0000B70710F0A61BB70B881F991F5A95A9F782
:103F100080959095BC01CD010895EE0FFF1F05908F
:103F2000F491E02D0994CF93DF938230910510F442
:103F300082E090E0E091CF05F091D00520E030E004
:103F4000C0E0D0E0309711F1408151814817590706
:103F5000C0F04817590761F482819381209719F0C6
:103F60009B838A832BC09093D0058093CF0526C076
:103F70002115310519F04217530718F49A01BE01B3
:103F8000DF01EF010280F381E02DDCCF2115310547
:103F900009F1281B390B2430310590F412968D91CC
:103FA0009C9113976115710521F0FB019383828326
:103FB00004C09093D0058093CF05FD01329644C094
:103FC000FD01E20FF31F81939193225031092D934C
:103FD0003C933AC02091CD053091CE05232B41F47E
:103FE00020910201309103013093CE052093CD053D
:103FF00020910001309101012115310541F42DB7C7
:104000003EB74091040150910501241B350BE0910E
:10401000CD05F091CE05E217F307A0F42E1B3F0B60
:104020002817390778F0AC014E5F5F4F241735072A
:1040300048F04E0F5F1F5093CE054093CD058193FE
:10404000919302C0E0E0F0E0CF01DF91CF910895BD
:104050000F931F93CF93DF93009709F48CC0FC015B
:104060003297138212820091CF051091D00501156D
:10407000110581F420813181820F931F2091CD059C
:104080003091CE052817390779F5F093CE05E093E6
:10409000CD0571C0D80140E050E0AE17BF0750F425
:1040A00012962D913C911397AD012115310509F11F
:1040B000D901F3CF9D01DA013383228360817181BD
:1040C000860F971F8217930769F4EC0128813981C5
:1040D000260F371F2E5F3F4F318320838A819B81BC
:1040E00093838283452B29F4F093D005E093CF0589
:1040F00042C01396FC93EE931297ED0149915991AA
:104100009E01240F351FE217F30771F4808191811E
:10411000840F951F029611969C938E9382819381B2
:1041200013969C938E931297E0E0F0E0D8011296DC
:104130008D919C911397009719F0F8018C01F6CF9F
:104140008D919C9198012E5F3F4F820F931F20917C
:10415000CD053091CE052817390769F4309729F439
:104160001092D0051092CF0502C0138212821093D4
:10417000CE050093CD05DF91CF911F910F9108954A
:10418000A0E0B0E0E6ECF0E20C94681EEC010097D1
:1041900021F4CB010E94931FB8C0FC01E60FF71F6A
:1041A0009C0122503109E217F30708F4ACC0D90191
:1041B0000D911C91119706171707B0F005301105E6
:1041C00008F49FC0C80104978617970708F499C0A0
:1041D00002501109061B170B019311936D937C93E9
:1041E000CF010E9428208DC05B01A01AB10A4C01AA
:1041F000800E911EA091CF05B091D00540E050E017
:10420000E12CF12C109709F44AC0A815B905D1F595
:104210006D907C901197630182E0C80ED11CCA1486
:10422000DB0480F1A3014A195B096A0182E0C80E30
:10423000D11C1296BC9012971396AC91B5E0CB1698
:10424000D10440F0B282A38351834083D9016D939E
:104250007C930AC00E5F1F4FC301800F911FF901AD
:1042600091838083EB2DFA2FE114F10431F0D70113
:104270001396FC93EE93129744C0F093D005E0930D
:10428000CF053FC08D919C9111974817590708F4AD
:10429000AC017D0112960D90BC91A02DB3CF809101
:1042A000CD059091CE0588159905E1F4461757077D
:1042B000C8F48091000190910101009741F48DB7FD
:1042C0009EB74091040150910501841B950BE8179E
:1042D000F907C8F4F093CE05E093CD05F901718399
:1042E00060830FC0CB010E94931F7C01009759F09F
:1042F000A801BE010E948F21CE010E942820C70183
:1043000004C0CE0102C080E090E0CDB7DEB7EEE0A1
:104310000C94841E81E090E0F8940C94A821FB0199
:10432000DC0102C001900D9241505040D8F7089531
:10433000FB01DC018D91019080190110D9F3990BDB
:104340000895FB01DC0101900D920020E1F7089532
:1043500011E0C3EED1E004C0FE010E948D1F219642
:0A436000C43ED107C9F7F894FFCF5F
:10436A000000D10580001F1C1F1E1F1E1F1F1E1FBD
:10437A001E1F1815A015C019FF1815A115C819FF79
:10438A001815AE19FF1815AF19FF1815AE15D51661
:10439A008015A8163F15D316001540158D1614154D
:1043AA0020160015A115C815DA1612158116CF1593
:1043BA00D916F115DB1640152E15A415A619FF00FE
:1043CA0001140A6464323200093D0003042896107D
:1043DA00080202800040000000000018048503B0B3
:1043EA00035F04E103BF03D30300000000B9060022
:1043FA00000000050CD50B5D0C7D0B9B0B8C0B7E16
:10440A000B00000000EC0D340C5D0C5C0C0000008D
:10441A0000A40485035D0CA304F80410058B04535F
:10442A006D617274576174636820426567696E00D2
:10443A004F4C45442073637265656E2073657475CD
:10444A007020636F6D706C6574652100535400476A
:10445A00530047532C0047420047422C0052530056
:10446A000D0A0042756F63206368616E0042504D09
:10447A003A20004D792057617463680056657220AE
:10448A00312E30004C617374206D6F643A00313103
:10449A003A3030202D2032302F3131005468616E8D
:0644AA006B20796F750024
:00000001FF
